:100000000C9434000C9446000C9446000C9446006A
:100010000C9446000C9446000C9446000C94460048
:100020000C9446000C9446000C9446000C94460038
:100030000C9446000C9446000C9446000C94460028
:100040000C9446000C9446000C9446000C94460018
:100050000C9446000C9446000C9446000C94460008
:100060000C9446000C94460011241FBECFEFD8E03C
:10007000DEBFCDBF11E0A0E0B1E001C01D92A43011
:10008000B107E1F70E94B7000C941F010C94000027
:100090009C0108C006B407FEFDCF86B58138E8F79D
:1000A0002150304021153105A9F708950F931F9372
:1000B000CF93DF93C0E0D0E0082F10E00BC02D9A63
:1000C0008CE291E00E9448002D988CE291E00E9421
:1000D00048002196C017D10794F388E592E00E946A
:1000E0004800DF91CF911F910F9108951F93182F12
:1000F000812F0E94560080ED97E00E944800F8CFC3
:10010000EAE7F0E084E88083ACE7B0E08C918064BB
:100110008C9380818068808380818064808308954F
:1001200090917C00907F90937C0090917C00982B24
:1001300090937C0080917A00806480937A00809113
:100140007A0086FDFCCF0895882371F082E00E943A
:10015000900080917800909179009695879596957A
:1001600087958093000108951092000108951F93D0
:10017000CF93DF938FEF84B917B818B815B814BCB4
:1001800082E085BDC0E0D0E02D9A80E590E00E943D
:1001900048002D9880E590E00E9448002196C830E4
:1001A000D10591F70E94800080E293E00E94480010
:1001B00083E00E9456001FEFCFEFD0E080E00E9466
:1001C0009000809178009091790090930301809342
:1001D00002018458934000F581E00E949000209134
:1001E0007800309179004091020150910301809193
:1001F0000101682F70E0CB01840F951F82179307D0
:1002000058F08091780090917900461B570B841725
:10021000950728F480E001C081E00E94A40015B990
:100220008091000190E00E94480015B88091000183
:100230009E01281B3109C9010E944800BFCFF894D4
:02024000FFCFEE
:00000001FF
