:100000000C9434000C943E000C943E000C943E0082
:100010000C943E000C943E000C943E000C943E0068
:100020000C943E000C943E000C943E000C943E0058
:100030000C943E000C943E000C943E000C943E0048
:100040000C943E000C943E000C943E000C943E0038
:100050000C943E000C943E000C943E000C943E0028
:100060000C943E000C943E0011241FBECFEFD8E04C
:10007000DEBFCDBF0E9474000C94F2000C9400000F
:10008000EAE7F0E084E88083ACE7B0E08C9180643C
:100090008C93808180688083089590917C00907F0C
:1000A00090937C0090917C00982B90937C0020E1B1
:1000B00030E080E090E040917A00406440937A0024
:1000C00040917A0046FDFCCF409178005091790034
:1000D000840F951F2150310971F79C0136952795A2
:1000E00036952795C901089583E28093800080EFBB
:1000F0009FE0909389008093880010928B0010926B
:100100008A0083B18295869586958370813079F0D7
:1001100028F0823071F0833089F40DC081E1809342
:10012000810080E8809361001092610007C081E146
:1001300003C083E101C084E18093810087E0809364
:10014000B1008FEF85B984E284B92D9A0E944000F6
:1001500083B190E8E92E99E0F92EB89B02C0219670
:10016000B89A1B9B36C01C9B2FC080E00E944D009C
:100170008C018F3F2EE0920710F581E00E944D0028
:1001800098012E5F3F4F2817390778F4C13022E0DD
:10019000D20758F082E00E944D00882790938B0090
:1001A00080938A00C0E0D0E0D8CF025011098017B8
:1001B000910798F610928B0010928A00CECF82E0C1
:1001C0000E944D00882709C0F0928B00E0928A00BF
:1001D000C4CF809188009091890090938B00809388
:0801E0008A00BBCFF894FFCFA9
:00000001FF
