:100000000C9434000C9446000C9446000C9446006A
:100010000C9446000C9446000C9446000C94460048
:100020000C9446000C9446000C9446000C94460038
:100030000C9446000C9446000C9446000C94460028
:100040000C9446000C9446000C9446000C94460018
:100050000C9446000C9446000C9446000C94460008
:100060000C9446000C94460011241FBECFEFD8E03C
:10007000DEBFCDBF11E0A0E0B1E001C01D92A43011
:10008000B107E1F70E94AB000C9410010C94000042
:10009000AAE7B0E083E88C93ECE7F0E0808180642D
:1000A00080838C9180688C93089590917C00907FE0
:1000B00090937C0090917C00982B90937C0020E0A2
:1000C00030E040E050E080917A00806480937A00D4
:1000D00080917A0086FDFCCF809178009091790024
:1000E000280F391F4F5F5F4F4031510561F736953B
:1000F000279536952795C90108959C0108C006B437
:1001000007FEFDCF86B58138E8F721503040211534
:100110003105A9F708950F931F93CF93DF93C0E0A4
:10012000D0E0082F10E00BC02D9A88EC90E00E94E0
:100130007D002D9888EC90E00E947D002196C017EC
:10014000D10794F384EF91E00E947D00DF91CF917D
:100150001F910F910895CF93DF9314BC82E085BD6A
:1001600083E28093800084E18093810080EF9FE0B0
:10017000909389008093880010928B0010928A00DF
:100180008FEF85B984E284B983E880937A00809107
:100190007C00806480937C0080917A0080688093EA
:1001A0007A0083E00E948B00C0E8D9E02C9B32C02B
:1001B0002D9A2B9B2AC080E00E945500909301014C
:1001C000809300018F5F9E40B8F481E00E9455004B
:1001D000AC019093030180930201209100013091C2
:1001E0000101C90102968417950730F02250304072
:1001F00042175307D8F60FC082E00E945500807066
:1002000090938B0080938A00D1CFD0938B00C093C2
:100210008A00CCCF2D9810928B0010928A00C6CF06
:04022000F894FFCF80
:00000001FF
