:100000000C9434000C943E000C943E000C943E0082
:100010000C943E000C943E000C943E000C943E0068
:100020000C943E000C943E000C943E000C943E0058
:100030000C943E000C943E000C943E000C943E0048
:100040000C943E000C943E000C943E000C943E0038
:100050000C943E000C943E000C943E000C943E0028
:100060000C943E000C943E0011241FBECFEFD8E04C
:10007000DEBFCDBF0E9478000C94D1000C9400002C
:100080009C0108C006B407FEFDCF86B58138E8F7AD
:100090002150304021153105A9F708950F931F9382
:1000A000CF93DF93C0E0D0E0082F10E00BC02D9A73
:1000B00088EB9BE00E9440002D9888EB9BE00E941B
:1000C00040002196C017D10794F388E592E00E9482
:1000D0004000DF91CF911F910F9108951F93182F2A
:1000E000812F0E944E0080E29EE40E944000F8CFE3
:1000F000CF93DF938FEF84B917B89CE195B988B996
:1001000014BC81E085BD10928000C0E0D0E02D9A43
:1001100080E293E00E9440002D9880E293E00E94EC
:1001200040002196C830D10591F780E49FE10E94FC
:10013000400086B190E08770907083309105E1F0C7
:10014000843091054CF481309105F1F082309105B5
:100150008CF4892B69F018C08530910589F08530C1
:10016000910564F08630910569F0079769F40FC036
:1001700089E00BC082E009C083E007C084E005C0CD
:1001800085E003C086E001C081E00E946E008AE045
:100190000E944E002D981092850010928400299A9A
:0601A000FACFF894FFCF36
:00000001FF
