:100000000C9434000C9451000C9451000C94510049
:100010000C9451000C9451000C9451000C9451001C
:100020000C9451000C9451000C9451000C9451000C
:100030000C9451000C9451000C9451000C945100FC
:100040000C9451000C9451000C9451000C945100EC
:100050000C9451000C9451000C9451000C945100DC
:100060000C9451000C94510011241FBECFEFD8E026
:10007000DEBFCDBF11E0A0E0B1E0E4E6F2E002C0F7
:1000800005900D92A230B107D9F711E0A2E0B1E0DE
:1000900001C01D92A630B107E1F70E94CD000C947B
:1000A00030010C940000EAE7F0E083E88083ACE7DD
:1000B000B0E08C9180648C938081806880838081A3
:1000C00080648083089590917C00907F90937C0061
:1000D00090917C00982B90937C0020E030E040E0F1
:1000E00050E080917A00806480937A0080917A0059
:1000F00086FDFCCF8091780090917900280F391F00
:100100004F5F5F4F4031510561F736952795369522
:100110002795C9010895882379F082E00E94630041
:10012000809178009091790024E0969587952A95A2
:10013000E1F78093B30008951092B30008959C01F5
:1001400008C006B407FEFDCF86B58138E8F7215018
:10015000304021153105A9F708950F931F93CF93D0
:10016000DF93C0E0D0E0082F10E00BC02D9A8CE2A6
:1001700091E00E949F002D988CE291E00E949F00E8
:100180002196C017D10794F388E592E00E949F0062
:10019000DF91CF911F910F9108951F938FEF84B935
:1001A0008AB914BC82E085BD83E28093800080E13F
:1001B0008093810084E08093810080E090E19093BF
:1001C00089008093880080E098E090938B00809372
:1001D0008A000E94530083E00E94AD0014E080E09A
:1001E0000E9463008093020190930301892F8695FA
:1001F00086950E94AD0080910201909103018C5A76
:100200009D40E8F481E00E946300AC0190930501F9
:10021000809304012091020130910301809100013B
:10022000682F70E0CB01820F931F8417950738F079
:10023000261B370B4217530728F480E001C081E0EA
:100240000E948B0081E00E94AD0015B988EE93E01A
:100250000E949F0015B888EE93E00E949F00BFCFD8
:04026000F894FFCF40
:02026400020096
:00000001FF
