:100000000C9434000C9451000C9451000C94510049
:100010000C9451000C9451000C9451000C9451001C
:100020000C9451000C9451000C9451000C9451000C
:100030000C9451000C9451000C9451000C945100FC
:100040000C9451000C9451000C9451000C945100EC
:100050000C9451000C9451000C9451000C945100DC
:100060000C9451000C94510011241FBECFEFD8E026
:10007000DEBFCDBF11E0A0E0B1E0EAE5F2E002C0F2
:1000800005900D92A230B107D9F711E0A2E0B1E0DE
:1000900001C01D92A530B107E1F70E94C2000C9487
:1000A0002B010C9400009C0108C006B407FEFDCF94
:1000B00086B58138E8F72150304021153105A9F780
:1000C00008950F931F93CF93DF93C0E0D0E0082FE4
:1000D00010E00BC02D9A8CE291E00E9453002D9805
:1000E0008CE291E00E9453002196C017D10794F34F
:1000F00088E592E00E945300DF91CF911F910F910C
:1001000008951F93182F812F0E94610080ED97E0C2
:100110000E945300F8CFEAE7F0E084E88083ACE780
:10012000B0E08C9180648C93808180688083808132
:1001300080648083089590917C00907F90937C00F0
:1001400090917C00982B90937C0080917A00806441
:1001500080937A0080917A0086FDFCCF08958823F1
:1001600071F082E00E949B0080917800909179006C
:10017000969587959695879580930201089510929C
:10018000020108951F93CF93DF938FEF84B917B8BF
:1001900018B815B814BC82E085BDC0E0D0E02D9A37
:1001A00080E590E00E9453002D9880E590E00E9449
:1001B00053002196C830D10591F780E293E00E9468
:1001C000530083E00E9461001FEFCFEFD0E080E09A
:1001D0000E949B0080917800909179009093040197
:1001E000809303018458934000F581E00E949B00B6
:1001F00020917800309179004091030150910401E1
:1002000080910001682F70E0CB01840F951F821749
:10021000930758F08091780090917900461B570B16
:100220008417950728F480E001C081E00E94AF00A8
:10023000809102018F5F8093020115B990E00E94C6
:10024000530015B8809102019E01281B3109C90194
:0A0250000E945300BCCFF894FFCFCA
:02025A000200A0
:00000001FF
