:100000000C9434000C943E000C943E000C943E0082
:100010000C943E000C943E000C943E000C943E0068
:100020000C943E000C943E000C943E000C943E0058
:100030000C943E000C943E000C943E000C943E0048
:100040000C943E000C943E000C943E000C943E0038
:100050000C943E000C943E000C943E000C943E0028
:100060000C943E000C943E0011241FBECFEFD8E04C
:10007000DEBFCDBF0E9478000C94AC000C94000051
:100080009C0108C006B407FEFDCF86B58138E8F7AD
:100090002150304021153105A9F708950F931F9382
:1000A000CF93DF93C0E0D0E0082F10E00BC02D9A73
:1000B00088EB9BE00E9440002D9888EB9BE00E941B
:1000C00040002196C017D10794F388E592E00E9482
:1000D0004000DF91CF911F910F9108951F93182F2A
:1000E000812F0E944E0080E29EE40E944000F8CFE3
:1000F0001F93CF93DF938FEF84B917B888B915B8E2
:1001000014BC82E085BD10928000C0E0D0E02D9A42
:1001100080E293E00E9440002D9880E293E00E94EC
:1001200040002196C830D10591F780E49FE10E94FC
:10013000400083E00E944E0010E0CFEFD0E01F5F50
:100140002D9A812F90E00E9440002D98CE01811BB6
:0C01500091090E944000F3CFF894FFCF0B
:00000001FF
