:100000000C9434000C9451000C9451000C94510049
:100010000C9451000C9451000C9451000C9451001C
:100020000C9451000C9451000C9451000C9451000C
:100030000C9451000C9451000C9451000C945100FC
:100040000C9451000C9451000C9451000C945100EC
:100050000C9451000C9451000C9451000C945100DC
:100060000C9451000C94510011241FBECFEFD8E026
:10007000DEBFCDBF11E0A0E0B1E0EAEFF1E002C0E9
:1000800005900D92A230B107D9F711E0A2E0B1E0DE
:1000900001C01D92A630B107E1F70E94B9000C948F
:1000A000FB000C940000EAE7F0E083E88083ACE713
:1000B000B0E08C9180648C938081806880838081A3
:1000C00080648083089590917C00907F90937C0061
:1000D00090917C00982B90937C0020E030E040E0F1
:1000E00050E080917A00806480937A0080917A0059
:1000F00086FDFCCF8091780090917900280F391F00
:100100004F5F5F4F4031510561F736952795369522
:100110002795C90108959C0108C006B407FEFDCFCC
:1001200086B58138E8F72150304021153105A9F70F
:1001300008950F931F93CF93DF93C0E0D0E0082F73
:1001400010E00BC02D9A88EC90E00E948B002D9857
:1001500088EC90E00E948B002196C017D10794F3A1
:1001600084EF91E00E948B00DF91CF911F910F915E
:1001700008958FEF84B98AB914BC82E085BD83E20B
:100180008093800084E18093810080E090E19093EF
:1001900089008093880084E690E090938B008093A0
:1001A0008A000E94530083E00E94990080E00E9430
:1001B000630090930301809302018C5A9D4098F450
:1001C00081E00E94630090930501809304012091D7
:1001D0000201309103012817390728F010928B0093
:1001E00010928A00E3CF82E00E94630090938B001C
:0A01F00080938A00DBCFF894FFCF64
:0201FA00020001
:00000001FF
