:100000000C9434000C9446000C9446000C9446006A
:100010000C9446000C9446000C9446000C94460048
:100020000C9446000C9446000C9446000C94460038
:100030000C9446000C9446000C9446000C94460028
:100040000C9446000C9446000C9446000C94460018
:100050000C9446000C9446000C9446000C94460008
:100060000C9446000C94460011241FBECFEFD8E03C
:10007000DEBFCDBF11E0A0E0B1E001C01D92A53010
:10008000B107E1F70E94C2000C9407010C94000034
:100090009C0108C006B407FEFDCF86B58138E8F79D
:1000A0002150304021153105A9F708950F931F9372
:1000B000CF93DF93C0E0D0E0082F10E00BC02D9A63
:1000C0008CE291E00E9448002D988CE291E00E9421
:1000D00048002196C017D10794F388E592E00E946A
:1000E0004800DF91CF911F910F910895EAE7F0E06A
:1000F00084E88083ACE7B0E08C9180648C9380814D
:1001000080688083808180648083089590917C00E2
:10011000907F90937C0090917C00982B90937C0032
:1001200020E030E040E050E080917A0080648093ED
:100130007A0080917A0086FDFCCF809178009091C2
:100140007900280F391F4F5F5F4F4830510561F725
:100150003695279536952795C9010895882379F016
:1001600082E00E948600809178009091790024E0DE
:10017000969587952A95E1F78093B300089510929C
:10018000B30008958FEF84B917B818B815B814BC28
:1001900082E085BD87E08093B10081E08093B0006C
:1001A00088E08093B10080E88093B0000E947600E0
:1001B00083E00E94560080E00E9486009093020136
:1001C00080930101885E9340E8F481E00E948600FC
:1001D000AC019093040180930301209101013091BF
:1001E000020180910001682F70E0CB01820F931F04
:1001F0008417950738F0261B370B4217530728F44E
:1002000080E001C081E00E94AE0081E0D2CFF8948E
:02021000FFCF1E
:00000001FF
